:020000040800F2
:10000000C8C10024AD03000801D40008C1B1000834
:10001000F9D30008090F0008F121010800000000D1
:1000200000000000000000000000000031F20008A5
:100030005118000800000000F1DA000811F500086E
:10004000C7030008C7030008C7030008C703000868
:10005000C7030008C7030008C7030008C703000858
:10006000C7030008C7030008C703000859100008A9
:10007000691000087910000889100008991000081C
:10008000A9100008B9100008C7030008891A000861
:10009000091B0008C7030008C7030008C7030008BE
:1000A000C7030008C7030008C7030008C703000808
:1000B000C7030008C7030008C7030008C7030008F8
:1000C000C7030008C7030008C7030008C7030008E8
:1000D000C7030008010301082903010839030108C7
:1000E000C7030008C703000800000000C70300089A
:1000F000C7030008C7030008C7030008C9100008A9
:10010000C7030008C7030008C7030008C7030008A7
:10011000C703000841F80008C7030008D9F6000823
:10012000C7030008C7030008C7030008C703000887
:10013000C7030008C7030008C7030008C703000877
:1001400000000000000000000000000000000000AF
:10015000C7030008C7030008C7030008C703000857
:10016000C7030008C7030008C7030008C703000847
:10017000C703000809D60008C703000800000000F4
:10018000C7030008C703000869F80008C703000890
:10019000C7030008C7030008C7030008C703000817
:1001A000C7030008C7030008C703000800000000D9
:1001B000C7030008C7030008C7030008C7030008F7
:1001C000C7030008C703000800000000000000008B
:1001D0000000000000000000C7030008000000004D
:1001E000000000000000000000000000000000000F
:1001F0000000000000000000C7030008C70300085B
:10020000C7030008C703000800000000C703000878
:10021000C7030008C7030008C7030008C703000896
:10022000C703000800000000C7030008000000002A
:10023000C7030008C703000800000000C703000848
:10024000C7030008C7030008C7030008C703000866
:10025000C7030008C7030008C7030008C703000856
:10026000C7030008C7030008C7030008C703000846
:10027000C7030008C7030008C70300080000000008
:10028000C7030008C7030008C7030008C703000826
:1002900000000000C7030008C703000800000000BA
:1002A00000000000C7030008C7030008C7030008D8
:1002B000D9020108C7030008C7030008891B00080A
:1002C000C7030008C9F60008C703000800F002F8D9
:1002D00000F05CF80AA090E8000C82448344AAF184
:1002E0000107DA4501D100F051F8AFF2090EBAE882
:1002F0000F0013F0010F18BFFB1A43F0010318475A
:10030000B4630100D46301000A444FF0000C10F8FC
:10031000013B13F0070408BF10F8014B1D1108BF83
:1003200010F8015B641E05D010F8016B641E01F823
:10033000016BF9D113F0080F1EBF10F8014BAD1C73
:100340000C1B09D16D1E58BF01F801CBFAD505E091
:1003500014F8016B01F8016B6D1EF9D59142D6D3EB
:10036000704700000023002400250026103A28BF13
:1003700078C1FBD8520728BF30C148BF0B60704717
:100380001FB515F080FA1FBD10B510BD00F084F93F
:100390001146FFF7F5FF13F0E3F900F0A2F903B4FB
:1003A000FFF7F2FF03BC00F0A5F900000948804701
:1003B00009480047FEE7FEE7FEE7FEE7FEE7FEE747
:1003C000FEE7FEE7FEE7FEE704480549054A064B5F
:1003D0007047000019F60008CD020008C8B70024D5
:1003E000C8C10024C8B90024C8B9002453EA020CCB
:1003F00000F069802DE9F04B4FF00006002B1FBF85
:10040000B3FA83F503FA05F424FA05F65E4012BF49
:100410001643B2FA82F502FA05F4C5F120051EBFB3
:1004200022FA05FC44EA0C04203556EA044C4FEA53
:10043000144418BF641C4FF000084FF000099042AC
:1004400071EB030C39D3002919BFB1FA81F701FA16
:1004500007F6B0FA80F700FA07F6C7F120071EBFCB
:1004600020FA07FC46EA0C062037B6FBF4FCA7EBA3
:100470000507103F07F01F0BCBF120062CFA06F6FC
:100480000CFA0BFB44BFB3460026202FA4BF5E46E8
:100490004FF0000B5BEA060C08BF4FF0010B19EBA5
:1004A0000B0948EB0608ABFB027C06FB02CC0BFBFE
:1004B00003CCC01B71EB0C01C1E70B460246414661
:1004C0004846BDE8F08B13B5084318BF4FF0FF3026
:1004D0000146AFF30080BDE81C407047032A40F29C
:1004E000308010F0030C00F0158011F8013BBCF1D6
:1004F000020F624498BF11F801CB00F8013B38BFEE
:1005000011F8013BA2F1040298BF00F801CB38BFFB
:1005100000F8013B11F0030300F02580083AC0F019
:10052000088051F8043B083A51F804CBA0E80810C1
:10053000F5E7121D5CBF51F8043B40F8043BAFF3F4
:100540000080D20724BF11F8013B11F801CB48BF4E
:1005500011F8012B24BF00F8013B00F801CB48BF84
:1005600000F8012B704710B5203AC0F00B80B1E8BD
:100570001850A0E81850B1E81850A0E81850203AD8
:10058000BFF4F5AF5FEA027C24BFB1E81850A0E8E1
:10059000185044BF18C918C0BDE810405FEA827CFB
:1005A00024BF51F8043B40F8043B08BF7047D20712
:1005B00028BF31F8023B48BF11F8012B28BF20F8B3
:1005C000023B48BF00F8012B704702F0FF0343EAEB
:1005D000032242EA024200F024B84FF0000204294C
:1005E000C0F0128010F0030C00F01B80CCF1040C62
:1005F000BCF1020F18BF00F8012BA8BF20F8022B96
:10060000A1EB0C0100F00DB85FEAC17C24BF00F83B
:10061000012B00F8012B48BF00F8012B70474FF069
:10062000000200B5134694469646203922BFA0E842
:100630000C50A0E80C50B1F12001BFF4F7AF09074E
:1006400028BFA0E80C5048BF0CC05DF804EB89003F
:1006500028BF40F8042B08BF704748BF20F8022B82
:1006600011F0804F18BF00F8012B7047704770479A
:10067000704710B500F008F8006810BD10B50446CA
:1006800000F002F8046010BD004870471804002410
:1006900000487047180400247546FFF7F9FFAE467E
:1006A00005006946534620F00700854618B020B57E
:1006B000FFF78AFEBDE820404FF000064FF000072C
:1006C0004FF000084FF0000BAC46ACE8C009ACE8B6
:1006D000C009ACE8C009ACE8C00921F007018D46AB
:1006E000704710B50446AFF300802046BDE81040C7
:1006F000FFF755BE01491820ABBEFEE726000200F9
:10070000704700000000000010B50446006842F287
:10071000001140F48070C4F20201884204D142F218
:100720000830C4F2020003E046F20830C5F60200C9
:10073000006810F4403F0FD007F0E6FE6168B1F5A5
:10074000803F05D0B1F5403F21D0B1F5003F1FD12A
:10075000090CB0FBF1F01BE04FF40020002106F083
:10076000D7FE6168A1F580224FEAB2420A2A0FD86B
:10077000DFE802F0060606060606383A3C3E400070
:100780006FF0010202EA5141B0FBF1F000E0800895
:100790004BF62141C0F2BE01884205D8206881682D
:1007A00021F44071816010BD47F64101C0F27D1116
:1007B000884206D820680122816862F3092181609D
:1007C00010BD21684FF28102C0F2FA22904288687F
:1007D00004D8022262F30920886010BD40F4407002
:1007E000886010BD0009D3E74009D1E78009CFE751
:1007F000C009CDE7000ACBE780B50146806B026EE9
:1008000012F0500F026E06D0D20611D4806DC26C69
:100810000846904780BD42F40071016601680A688D
:100820001207CA6807D491070BD001F055FF80BDAD
:1008300001F05AFF80BD12F4406FF6D1C9688904F7
:10084000F3D4016E21F480710166016EC904ECD409
:10085000016E41F00101016601F03EFF80BD000024
:1008600080B5806B016E41F040010166416E41F040
:100870000401416601F038FF80BD00000000000067
:1008800080B5806B01F02CFF80BD000000000000EF
:10089000B0B5016804468A688868C0074FF0000058
:1008A00032D012F0020218BFB0BD886800F00D000F
:1008B000012820D14FF6C0728868C7F6FF72104039
:1008C000023088600320086005F026FC21688968F2
:1008D000C90701D10020B0BD054603E0206880684B
:1008E000C007F7D005F018FC401B0328F6D320689A
:1008F0008068C007F2D0206E40F010002066606E65
:1009000040F0010060660120B0BD00000000000062
:10091000F0B581B0044600688168C90752D14FF62E
:10092000C0778168C7F6FF7707F17F0211420AD0CE
:10093000206E40F010002066606E40F0010060669E
:10094000012001B0F0BD8168394041F001018160B2
:1009500005F0E2FB42F2000246F20836C4F202025F
:10096000216802F5807302F54275C5F602069942C8
:1009700008BF2E4691420A4608BF2E4699420546B8
:1009800004BF42F20002C4F2020230688A4218BF79
:1009900010F01F0016D100BF20680168C90711D1EF
:1009A0008168C90704D18168394041F00101816043
:1009B00005F0B2FB401B0328EED320680068C00797
:1009C000EAD1B5E7002001B0F0BD00000000000052
:1009D0002DE9F0472DED028B82B042F24F440546DF
:1009E000C2F20044217800294CD045F6C83842F2C2
:1009F000AC44C2F20048164641F2AC07C2F20044D1
:100A000098F80C00012811D100200121C5F6020040
:100A100005F072FB50B941F61050B8EE080A2044B8
:100A200090ED001A31EE000A80ED000A40F2EE3936
:100A30002F44C2F2004999F80000002808BF02269E
:100A4000032E26D0022E38D0012E40F0918041F2A4
:100A5000C400002141F28812215041F23220A150FD
:100A600041F2EC42215041F2B050A15041F25A62A1
:100A7000215041F2D820A15041F29C32215041F244
:100A8000464017E028460DF0E7FD012020700020C9
:100A9000FBE040F2EF300021C2F2004041F2D822E8
:100AA000017041F2C4004CF20001CCF2945121508B
:100AB00041F2EC40A15021505AE040F2EF3641F2B1
:100AC000C400C2F200464CF20001CCF2945141F253
:100AD000D8223378215041F2EC40A150002B215014
:100AE00046D141F610509FED6B8A20444FF0000A2A
:100AF00089F800A090ED000A30EE080A80ED000AA7
:100B0000204600F011FE41F6626041F672219FED31
:100B1000620A2058B0EE401A615800EE900A01EEC9
:100B2000901A46F29C30C2F2004040F2FE4112F0B0
:100B30003FFA42F2804045F64841C2F200409FED44
:100B4000571AC2F2004190ED000A30EE080A80ED1B
:100B5000000AB4EE410ABDEEC00AF1EE10FA81EDD2
:100B6000000A05DC012189F80010C0F800A03170EE
:100B700098F80D0003281BD141F2C400002141F276
:100B80008812215041F23220A15041F2EC42215012
:100B900041F2B050A15041F25A62215041F2D820A6
:100BA000A15041F29C32215041F24640A1502150C7
:100BB000B7F90000D7ED060A00EE100A41F20A204C
:100BC0002844B8EEC00A0CF027FDB7F9140200EE75
:100BD000100A41F2D820211841F21E402844B8EEF4
:100BE000C00AD1ED000A0CF017FDB7F9280400EE99
:100BF000100A41F2EC40211841F232602844B8EE6C
:100C0000C00AD1ED000A0CF007FD204600F08CFD73
:100C100041F23E2041F2666241F2524100272058E3
:100C2000019700EE100AA058615802EE100A01EE7A
:100C3000101A4FF40071BDEEC00ABDEEC22ABDEE1F
:100C4000C11A10EE102A12EE100A11EE103A00909E
:100C500046F23C40C2F2004000F0DEF941F662602C
:100C600041F672219FED0C0A2058B0EE401A6158EF
:100C700000EE900A01EE901A46F29C30C2F200405B
:100C800040F2FE4112F094F9012002B0BDEC028B5B
:100C9000BDE8F087000048C20000000000C0A8C402
:100CA00080B540F600000121C5F60200012205F0E2
:100CB0002BFA80BD0000000080B540F60000012145
:100CC000C5F60200002205F01FFA80BD00000000FA
:100CD000704700000000000080B540F600000821C9
:100CE000C5F60200012205F00FFA80BD00000000E9
:100CF00080B540F600000821C5F60200002205F08C
:100D000003FA80BD000000007047000000000000F2
:100D100010B5002808BF10BD044600BF4FF47A701C
:100D2000013C00F0CDFC2004F8D110BD0000000013
:100D300080B500F0C5FC80BD10B5FFF7C9FFFFF717
:100D4000E3FF11F02DFF044611F0BAFF204310BD60
:100D50002DE9F04383B00023019390460E4681466F
:100D60000093FFF7A9FF922000F0AAF8922000F06C
:100D7000A7F868460624451E2F4600BF552000F000
:100D80009FF8013C07F8010F2006F7D1FFF788FF15
:100D9000BDF90000BDF90420BDF9021000EE100AF3
:100DA00040F21400C2F20040B8EEC00A90ED001A02
:100DB00021EE000A01EE101A86ED000A00EE102A5C
:100DC00090ED002AB8EEC11AB8EEC00A22EE011A60
:100DD00022EE000A86ED011A86ED020AFFF788FF6F
:100DE000802000F06DF808242E4600BF552000F04A
:100DF00067F8013C06F8010F2006F7D1FFF76CFFFA
:100E00009DF800000F2825D1BDF90200BDF904109E
:100E1000BDF9062000EE100A40F21800C2F20040B0
:100E2000B8EEC00A90ED001A21EE000A01EE101A89
:100E300089ED000A00EE102A90ED002AB8EEC11AE2
:100E4000B8EEC00A22EE011A22EE000A89ED011A5C
:100E500089ED020AFFF730FFA22000F031F8A2204E
:100E600000F02EF8022400BF552000F029F8013CC4
:100E700005F8010F2006F7D1FFF712FF9DF80000DB
:100E80004FF600029DF80110CFF6FF72C000B4EEDD
:100E9000001AB3EE072A40EA51100021B1EB902F5F
:100EA00018BF104300EE100AB8EEC00AA0EE012AE7
:100EB00088ED002A03B0BDE8F083000000000000C8
:100EC00080B582B08DF8070046F68820C2F2004057
:100ED0000DF107010DF1060201234FF47A7CCDF8E4
:100EE00000C008F011FA9DF8060002B080BD0000B5
:100EF00080B546F6E4300421C2F2004009F0C8F89B
:100F000080BD000000000000FEE7000000000000BF
:100F100010B542F2704045F6C83CC2F20040C2F241
:100F2000004C0389BCF80220BCF804106FF3DF22E8
:100F300003F4784E438972446FF3DF21028103F496
:100F400078429CF80C301144BCF80A204181818918
:100F50006FF3DF2203F0070301F4784101EB020E87
:100F60009CF80D1047F28C0CC289C2F2004C01F0C3
:100F7000030122F44E52A0F80CE09CF8004042EA33
:100F8000C31242EA0131C181621C8CF80020D107F2
:100F90000AD100F1080246F29C30C2F2004040F251
:100FA0002121082311F00CFF012010BD00000000DA
:100FB0000020704700000000002070470000000083
:100FC00010B545F6904445F2DC21C2F20044C2F26D
:100FD0000041002220460FF08FFB44F6DC21204622
:100FE000C2F200410FF078FB002010BD00000000AD
:100FF00010B545F690440146C2F2004420460FF079
:101000006BFB20460FF044FB002010BD00000000E9
:10101000002070470000000080B582B04FEA122C1B
:101020008DF801201A0A8DF80220049A8DF80330F9
:10103000130A8DF80430059B8DF805201A0A8DF8E7
:1010400006208DF807306A4608238DF800C011F09D
:10105000B7FE02B080BD000080B546F23420C2F277
:10106000004002F0F9FC80BD80B545F6DC70C2F2AC
:10107000004002F0F1FC80BD80B546F2AC20C2F227
:10108000004002F0E9FC80BD80B546F24410C2F297
:10109000004002F0E1FC80BD80B546F2CC00C2F217
:1010A000004002F0D9FC80BD80B546F22430C2F287
:1010B000004002F0D1FC80BD80B546F2BC10C2F207
:1010C000004002F0C9FC80BD80B546F25400C2F277
:1010D000004002F0C1FC80BD40F20F420168C4F242
:1010E0000202914210DC6F22C4F20202914220DC23
:1010F0003F22C4F20202914236DC1022C4F2020204
:10110000914254D028224EE040F26F42C4F20202D3
:1011100091421ADC40F23F42C4F2020291422ADCC0
:1011200040F21042C4F20202914240D040F2284202
:1011300039E09F22C4F20202914225DC7022C4F2FF
:101140000202914233D088222DE040F29F42C4F245
:10115000020291421FDC40F27042C4F2020291424C
:1011600025D040F288421EE04022C4F202029142A1
:101170001DD0582217E040F24042C4F202029142D0
:1011800015D040F258420EE0A022C4F20202914271
:101190000DD0B82207E040F2B842C4F202029142F8
:1011A00005D040F2A042C4F2020291421AD1D0F816
:1011B00000C06FF00F024AF6AB2352FA8CF2CAF667
:1011C000AA23A2FB033109A35F2AC1F302115B5CCE
:1011D00040F2FF312CEA0101C36588BF043181650B
:1011E00008467047016821F0FF01F8E70006101675
:1011F000000610160000000070B540F26F44D0F8F1
:1012000000E0C4F20204D0F858C0A64519DC9F25BE
:10121000C4F20205AE4531DC5725C4F20205AE45E5
:1012200056DC1025C4F20205AE4500F09280282558
:10123000C4F20205AE4500F08C804025C4F20205E0
:1012400084E045F22F45C5F60205AE452BDC40F2A1
:10125000B745C4F20205AE4548DC40F27045C4F221
:101260000205AE4575D040F28845C4F20205AE4590
:101270006FD040F2A045C4F2020567E040F2274576
:10128000C4F20205AE4540DCA025C4F20205AE451D
:101290005FD0B825C4F20205AE455AD040F21045E1
:1012A000C4F2020552E045F26B45C5F60205AE45B3
:1012B0003CDC45F23045C5F60205AE4549D045F265
:1012C0004445C5F60205AE4543D045F258453BE0DE
:1012D0005825C4F20205AE453BD07025C4F2020584
:1012E000AE4536D08825C4F202052FE040F2B8455D
:1012F000C4F20205AE452CD045F20845C5F60205FC
:10130000AE4526D045F21C451EE040F22845C4F209
:101310000205AE451DD040F24045C4F20205AE457F
:1013200017D040F25845C4F202050FE045F26C4573
:10133000C5F60205AE450CD045F29445C5F602054A
:10134000AE4506D045F28045C5F60205AE4540F0F3
:10135000C980456EC66E002E866E6E601CBFD0E9D9
:101360001C566E60A64515DC9F24C4F20204A645F7
:101370002BDC5724C4F20204A6454EDC1024C4F230
:101380000204A64576D02824C4F20204A64571D0F2
:1013900040246BE045F22F44C5F60204A64527DC45
:1013A00040F2B744C4F20204A64542DC40F2704465
:1013B000C4F20204A6455DD040F28844C4F202049F
:1013C000A64557D040F2A04450E040F22744C4F272
:1013D0000204A6453CDCA024C4F20204A64549D080
:1013E000B824C4F20204A64544D040F210443DE0C3
:1013F00045F26B44C5F60204A6454FDC45F2304485
:10140000C5F60204A6455BD045F24444C5F6020485
:10141000A64555D045F258444EE05824C4F2020483
:10142000A64527D07024C4F20204A64522D0882401
:101430001CE040F2B844C4F20204A6451AD045F2BA
:101440000844C5F60204A6453AD045F21C4433E0F0
:1014500040F22844C4F20204A6450BD040F24044B6
:10146000C4F20204A64505D040F25844C4F2020476
:10147000A64537D104683F258668C06D00F01F007F
:10148000402E05FA00F0CCF80800206820F48020F7
:101490002060636021D0A160E26070BD45F26C44C1
:1014A000C5F60204A6450BD045F28044C5F60204F9
:1014B000A64505D045F29444C5F60204A64511D1CF
:1014C0000468C66D806806F01F060125402805FAED
:1014D00006F6CCF80460636002D1A260E16070BDE2
:1014E000A160E26070BD000080B582B041F2040CE2
:1014F00042F25042CEF2000CC2F20042DCF8001080
:101500000091DDF800E00368126800990160DCF8E2
:10151000000042F2684CC2F2004C01900199DCF8E4
:101520000000814206D242F26C40C2F200400168E3
:1015300001310160AEEB030001EE102A00EE100A4B
:101540000198CCF80000B8EE411AB8EE400A80EEDF
:10155000010A02B080BD00002DE9F04383B041F2E2
:101560000400CEF20000016801910068029042F28E
:1015700068400299C2F200400268914242F26C4116
:10158000C2F2004102D20A6801320A60029A026085
:101590000868019D4FF0FF310026E0FB015642F242
:1015A0006040C2F2004000233146C0E9005642F2DA
:1015B0005040C2F20040076828463A46FEF716FF40
:1015C0008046A0FB070201FB072144F2B0692D1AF7
:1015D00042F25440C2F200408E41C2F20049002360
:1015E0000768284631463A46C9F80080FEF7FEFEF5
:1015F000044642F2584280B2C2F2004278430023CD
:101600001268A9F80440281A66F10001FEF7EEFE00
:1016100082B24FF47A7108FB01F101EE102A9FEDBE
:10162000082AA9F8060011FA84F100EE101AB8EEA3
:10163000411AB8EE400AA1EE020A03B0BDE8F083F9
:101640006F12833A000000004EF6FC51CEF200010A
:101650000A6842F080720A6041F200010022CEF274
:1016600000014A600B6843F001030B6044F2402123
:10167000C0F20F01484342F25041C2F200410860FB
:1016800044F6D351C1F26201A0FB01134DF6836110
:10169000C4F21B31A0FB010142F25440C2F20040EF
:1016A0009B090360880C42F25841C2F20041086075
:1016B00042F26C40C2F2004002607047000000003D
:1016C00080B541F2040140F21833CEF20001C2F2BB
:1016D00000434DF68362D1F800E0D3F800C0C4F2B5
:1016E0001B3242F21073ACFB022C984238BF034607
:1016F0004FEA9C4058430B6810EB0E000AD3734529
:1017000004D900BF0A688242FCD800BF0A6882423E
:10171000FCD306E0734598BF80BD00BF0A688242D3
:10172000FCD380BD0000000041F6105141F632624A
:1017300001449FED432A104491ED050A91ED001AF2
:10174000B8EEC00A91ED273A31EE400A91ED1F1A2A
:1017500081ED230AA0EE013A91ED1E1A20EE011A46
:1017600081ED261A81ED273AB4EE423AF1EE10FAF5
:1017700002DD81ED272A08E09FED322AB4EE423ADD
:10178000F1EE10FAB8BF81ED272A91ED242AB1F9C4
:101790000C2030EE422A91ED203A436AD0F818C06E
:1017A00005EE103A06EE10CA22EE032A91ED273A12
:1017B00031EE031A03EE102A426881ED282A04EE66
:1017C000102A026832EE011A02EE102AB8EEC33A6D
:1017D000826881ED240A81ED2A1A31EE433AA3EEA4
:1017E000045A13EE101A33EE464A06EE102A23EE80
:1017F000020A416124EE061A10EE102A30EE050AA4
:1018000015EE101A026211EE102A30EE011A416232
:101810009FED0D0A826211EE101AB4EE401AF1EE3D
:1018200010FA016307DC9FED090AB4EE401AF1EEED
:1018300010FAA8BF704710EE101A0163704700BF7E
:1018400000004842000048C20000FA430000FAC30A
:101850007047000000000000EFF3108072B600BF78
:10186000FEE700000000000010B52DED028B4FF4E4
:10187000FA70FFF7E9FE40F2FC309FED628AC2F297
:10188000004045F64C44F0EE481AB0EE482AC2F249
:101890000044002190EC030A00220023204600F0BF
:1018A0008FFBB6EE002A47F23C30B0EE481AF0EE5D
:1018B000481AC2F2004040F2F031F0EE422AC2F281
:1018C00000419FED510A0222DFED500A0123C0F8CA
:1018D00094400CF0D5F8DFED4F0AB2EE040AF7EEB3
:1018E000001AB0EE602AF0EE482A9FED491A09F07E
:1018F00033FD46F67C400C21C2F2004008F0C8FBE4
:10190000FFF71AFA0028FBD145F66C740021C2F2E9
:10191000004440F2FF72204600F0C2FB45F6A031C1
:101920000222C2F20041204601F0BAF846F6C84051
:10193000C2F2004007F04CFF00F06EF800F0ACF887
:1019400000F0EAF840F600044FF40051C5F6020436
:101950000122204604F0D8FB4FF4804101222046AA
:1019600004F0D2FB4FF400410122204604F0CCFBEE
:1019700046F698340021C2F20044204608F088FB65
:101980000821204608F084FBFFF7B2FA46F614500F
:1019900047F22C21C2F20040C2F200414FF4FF7224
:1019A00008F09EFC46F6A85044F29161C2F2004055
:1019B000C2F20041282208F093FC46F6F87042F289
:1019C0005031C2F20040C2F200414FF4FF7208F001
:1019D00087FC46F6647040F20001C2F20040C2F299
:1019E00000415A2208F07CFC42F2AC44C2F20044AE
:1019F00020460CF031FE20460CF03AFFBDEC028B85
:101A000010BD00BF0000000000A08C450000C842CF
:101A10008096184B6F12833A10B58AB000240220CA
:101A200004900120CDE9050446F29C3002A9C2F2DF
:101A300000400794CDE9024403F016FC08B1FFF71B
:101A40000BFF46F29C300221C2F20040022200232A
:101A5000009403F04DFC08B1FFF7FEFE46F29C3007
:101A60000121C2F20040002203F08AFB08B1FFF717
:101A7000F3FE46F29C30C2F2004004F025FA08B1B1
:101A8000FFF7EAFE0AB010BD80B546F29C30C2F204
:101A9000004003F01DFD80BD10B58AB0022002A9F0
:101AA000CDE9040046F23C400024C2F20040CDE9FA
:101AB0000244CDE9064403F0D7FB08B1FFF7CCFEA2
:101AC00046F23C400221C2F2004002220023009470
:101AD00003F00EFC08B1FFF7BFFE46F23C401021B8
:101AE000C2F20040002203F04BFB08B1FFF7B4FE46
:101AF00046F23C40C2F2004004F0E6F908B1FFF7BC
:101B0000ABFE0AB010BD000080B546F23C40C2F208
:101B1000004003F0DDFC80BD10B58AB00024022037
:101B200004900120CDE9050446F2DC4002A9C2F28E
:101B300000400794CDE9024403F096FB08B1FFF79B
:101B40008BFE46F2DC400221C2F20040022200235A
:101B5000009403F0CDFB08B1FFF77EFE46F2DC40B7
:101B60000121C2F20040002203F00AFB08B1FFF796
:101B700073FE46F2DC40C2F2004004F0A5F908B161
:101B8000FFF76AFE0AB010BD80B546F2DC40C2F233
:101B9000004003F09DFC80BDF0B5D1F804C0D1F841
:101BA00010E0BCF1000FD1F808C006D00C684EEA76
:101BB0000C05254345F0804C04E00D684CEA0E040A
:101BC00044EA854C856ED0F88470D1E907466B43B2
:101BD0008D6944EA0660D1F814E00543CC6807EB50
:101BE000830045EA0E0647F823C046EA0403436033
:101BF000CB68B3F5803F38BFF0BD45F6284C0830C0
:101C000001320023C0F6010CD71857F8017CC750E9
:101C1000CF8904331CF80770BB42F5D3F0BD000038
:101C200070B510EE105A04461E460028C0F88C50BD
:101C300018BF002906D1002020606060A060C4F8B1
:101C40008C0005E008682060486860608868A060D3
:101C500010EE900A032A22862062A4F85C6004D366
:101C600004F1320011460BF0A7FC032E04D304F15B
:101C70005E0031460BF0A0FC0020A061C4F8880093
:101C800070BD00000000000070B52DED048B04460F
:101C9000806BB0EE608AB0EE409AFFF725FC606B77
:101CA00038EE493A01EE100A606A04EE100A10EEAE
:101CB000100A13EE101A33EE412AB0EE081AE06350
:101CC000E16282EE002A616324EE010A12EE100A3C
:101CD000B4EE403AF1EE10FA206315DAB8EE085A85
:101CE00024EE055AB4EE453AF1EE10FA0EDD83EE1D
:101CF000045AB5EE403AF1EE10FABDEEC55A15EEB3
:101D0000100A05DA023004E0062002E0002000E0BC
:101D10000330B4EE403AF1EE10FA15DAB8EE085A94
:101D200024EE055AB4EE453AF1EE10FA0EDD83EEDC
:101D3000045AB5EE403AF1EE10FABDEEC55A15EE72
:101D4000101A05DACA1C04E0062202E0002200E0B4
:101D50000A1DA16A05EE101A25EE016AB4EE462AA4
:101D6000F1EE10FA16DAB8EE087A25EE077AB4EE3C
:101D7000472AF1EE10FA10DD82EE057AB5EE402A20
:101D8000F1EE10FABDEEC77A17EE101A08DA01F17B
:101D9000020C07E04FF0060C04E04FF0000C01E0ED
:101DA00001F1030CB4EE462AF1EE10FA16DAB8EEA1
:101DB000087A25EE077AB4EE472AF1EE10FA10DD24
:101DC00082EE057AB5EE402AF1EE10FABDEEC77A42
:101DD00017EE103A08DA03F1030E07E04FF0060E93
:101DE00004E04FF0000E01E003F1040EB4EE403ABF
:101DF000F1EE10FA13DAB8EE087A64EE070AB4EEE0
:101E0000603AF1EE10FA0DDD00EE902AC3EE041AEE
:101E1000F8EEE00A70EEE10A30EE877A04E09FED1A
:101E2000677A01E0B7EE007AB4EE403AF1EE10FACC
:101E300013DAB8EE080A24EE000AB4EE403AF1EEE6
:101E400010FA0DDD83EE040A03EE100AB8EEC33A71
:101E500030EE430A30EE010A04E0B7EE000A01E07A
:101E60009FED560AB4EE462AF1EE10FA13DAB8EEF8
:101E7000083A25EE034AB4EE442AF1EE10FA0DDDDD
:101E800004EE10EAC2EE050AB8EEC44A34EE604A27
:101E900034EE033A04E09FED493A01E0B7EE003A30
:101EA000B4EE462AF1EE10FA13DAB8EE084A25EE3F
:101EB000044AB4EE442AF1EE10FA0DDD04EE10CA25
:101EC00082EE052AB8EEC44A32EE442A32EE011AF6
:101ED00004E0B7EE001A01E09FED381AE168C2EBAA
:101EE000C202C0EBC00027EE012A01EB820327EEFD
:101EF000034A03EB8C0520EE033A01EB800120EE50
:101F0000010A95ED005A01EB8C0522EE055A01EB12
:101F10008E0195ED006AA4EE065A91ED006A03EB7E
:101F20008E01A3EE065A91ED001A2169A0EE015A26
:101F300001EB820505EB8C0601EB800115EE103AF2
:101F4000236001EB8C0396ED001A01EB8E0122EE6B
:101F5000011A93ED005AA4EE051A91ED005A05EB13
:101F60008E01A3EE051A91ED005A6169A0EE051AE3
:101F700001EB820202EB8C0501EB800000EB8C018F
:101F800000EB8E0011EE103A636095ED001A22EE20
:101F9000011A91ED002AA4EE021A90ED002A02EB3C
:101FA0008E00A3EE021A90ED002AA0EE021A11EEA6
:101FB000100AA060BDEC048B70BD00BF00000000E3
:101FC00040F2A81C0029C2F2004CB7EE003A18BF3C
:101FD0008C4640F2E401002AC2F2004118BF1146CB
:101FE00040F22002002BC2F20042C0F80CC018BF21
:101FF0001A4610EE103A9FED0F0AB4EE610A016125
:10200000F1EE10FAB4EE420A426133FE210A10EEFC
:10201000901AF1EE10FA11EE102AC16133FE022A75
:1020200010EE101A0262836112EE102A416282627F
:10203000704700BFACC5273744F29040C2F2004061
:1020400090ED690A7047000044F29040C2F20040EF
:1020500090ED680A7047000044F29040C2F20040E0
:1020600090ED6A0A7047000044F29040C2F20040CE
:1020700090ED6B0A7047000044F2AC610278C2F246
:10208000004143780A7082788A7047F22822C0782B
:10209000C2F200424B70C87000200968116070479E
:1020A00070B582B000230193044690F85C000128CB
:1020B00002D1022002B070BD012084F85C002046ED
:1020C00015460E46FEF7E4FB216E10B141F01001FB
:1020D0002DE041F202124FF6C0739143C3F6FE7336
:1020E00002312166216806F4803605F080458A6851
:1020F0001A4073191A4402F100428A604FF6000236
:10210000C2F2C3528B68B3F1FF3F0CDC019B013379
:102110000193019B9342F5D3206E40F0100020F014
:102120000201012003E0216E012262F30101216618
:10213000002184F85C1002B070BD000000000000B7
:1021400070B582B090F85C20012A01D102213FE0F5
:1021500042F20835012280F85C2000230193C4F28A
:1021600002050093A5F542740368A34228D14FF6F7
:10217000006CCFF6FF7C55F80C409A68224352075A
:102180001ED4D1F800E02A68BEF1000F22F44044CA
:1021900021D043F4807242F20013C4F202034E686D
:1021A0009A4244EA06022A6029D14FF60052CFF63D
:1021B000FF72AA5855F80C301343DA073DD125E0D9
:1021C000016E41F0200101660121002280F85C20AF
:1021D000084602B070BD42F2001243F48071C4F2AE
:1021E00002022C6091421AD14FF60051CFF6FF71D6
:1021F000695855F80C201143C9071ED116E046F264
:102200000802C5F602021368DA0716D12A6840F6FA
:102210001F7389689A4341EA0E0111430AE046F2AE
:102220000801C5F602010968C90706D1296840F608
:102230001F72914329600021C7E70021C5E7000014
:102240002DE9F04381B00022009290F85C20012A31
:1022500001D1022102E20268012380F85C30936818
:102260005B0700F1F38146F2083C4FF6FF7EC5F6AE
:10227000020CC0F20F0EACF54278424510D00C684B
:1022800014EA0E0F94FAA4F5B5FA85F508BFA50E69
:1022900005F01F04012505FA04F4D5692C43D46127
:1022A0004C680E681F27C4F3012504F01F04A740E3
:1022B00002EB8505C6F384662B6B06FA04F4BB4378
:1022C00023432B639368946803F0040304F0080429
:1022D0001B1940F009810B6807268D684245C3F33E
:1022E0004064C3F3045302EB840406FA03F66769FF
:1022F00005FA03F327EA060643EA0603636111D0F1
:1023000041F20003C5F600431B6803F07043B3F1CC
:10231000805F14D14B69D4680E2505EA540403FA92
:1023200004F419E04FF604544B69CFF6FF74062508
:102330005CF8044005EA940403FA04F40CE0D36862
:102340004C69D568DB064FEA550502D405F00E034B
:1023500001E005F008039C400E69042E25D142459A
:1023600055D0136E0C6803F0F843A406A34203D1C2
:10237000136E23F000431366536E03F0F843A34239
:1023800003D1536E23F000435366936E03F0F8437A
:10239000A34203D1936E23F000439366D36E03F000
:1023A000F843A34200F084809EE002F160050B68D0
:1023B000424503F0F84355F8267043EA040307F05A
:1023C000004708BF4FF00047424543EA070345F87E
:1023D00026300C6971D091F821300E7E55F82470AA
:1023E00027F00047012B08BF07F10047731EB3FA1F
:1023F00083F345F824705B090C69DB02156904F06E
:102400001F0425F4F045A3402B4313616CE04FF605
:102410005853CFF6FF735CF80330136E0C68C3F3A8
:10242000846314EA0E0F94FAA4F5B5FA85F508BF93
:10243000C4F38465AB4203D1136E23F000431366EB
:10244000536E536E0C6814EA0E0F94FAA4F5B5FAA5
:1024500085F508BFC4F38465C3F38463AB4203D13D
:10246000536E23F000435366936E936E0C6814EA28
:102470000E0F94FAA4F5B5FA85F508BFC4F3846588
:10248000C3F38463AB4203D1936E23F0004393669E
:10249000D36ED36E0C6814EA0E0F94FAA4F5B5FA55
:1024A00085F508BFC4F38465C3F38463AB421BD1D5
:1024B000D36E23F00043D36616E0ACF52A72CB69E5
:1024C00052F8245025F080752B4342F824300B69D4
:1024D00091F8204052F82350012C25F0007508BFD8
:1024E00005F1007542F8235002689368DB075DD15F
:1024F00042450C68CD680DD005F01806D2F8C03002
:1025000004EA0E072EFA06F6BB4326403343C2F810
:10251000C03012E04FF6A85905F01807CFF6FF7942
:1025200004EA0E032EFA07F75CF8096026EA0303B3
:1025300007EA040633434CF809300023C4F2FF7362
:102540009D422FD194FAA4F314EA0E0FB3FA83F349
:102550004FF0010608BFA30E013303F01F0703F07D
:102560001E030A2B07EB470506FA07F740F20006A1
:10257000CFF6206606EB055646EA070646F00076DB
:1025800038BF47EA055607258F68C6F34063C6F390
:10259000045602EB8303B5405C69B74024EA0505A5
:1025A0002F435F610968B1F1FF3F01DD002152E077
:1025B00042F2000542F20016C4F20205C4F202061D
:1025C00005F5807305F542779A42634608BF3B469E
:1025D000AA4208BF3B4642F48077B7421C682DD11F
:1025E000AB68D5F8087147EA0306F3072ED100233C
:1025F00004F0E07ECCF25273994208BF14F4000359
:1026000030D00023CCF22133994208BF14F08073FC
:1026100052D00023CCF6843399424FF000011AD1F6
:1026200014F4800308BF424515D1DCF8001021F0F6
:10263000E07141EA0E0141F4800148E04FF6005399
:10264000CFF6FF735CF80360F307D0D0016E41F062
:10265000200101660121002280F85C20084601B0BB
:10266000BDE8F0834245A1D1DCF8001042F6635288
:1026700021F0E071C0F23E5241EA0E0141F4000146
:10268000CCF8001040F21831C2F200410968890903
:10269000A1FB02129109022202EB41010091009973
:1026A00000293FF483AF0099013900910099002976
:1026B0004FF00001F7D1CEE742457FF477AFDCF869
:1026C000001021F0E07141EA0E0141F08071CCF878
:1026D00000106BE7000000007047000000000000E1
:1026E000704700000000000070470000000000007C
:1026F000B0B582B0044600284FF00000019040D0F1
:10270000206E30B9204600F03BF90020606684F866
:102710005C002068816889004FF6C071C5F6FF71C2
:1027200002D582680A4082608268D2001CD4826826
:1027300001F18051114042F6635241F080518160B5
:1027400040F21831C0F23E52C2F2004109688909D4
:10275000A1FB0212012101EB921100BF019101992D
:1027600011B101990139F9E78168C9000BD4216ED3
:10277000012541F010012166616E41F001016166A1
:1027800002E00125F2E000258168226E02F01002CD
:1027900001F004018918216E57D121F4817146F2AC
:1027A000000C023121668168C5F6020CC90723D1ED
:1027B00042F2001340F48072C4F202039A4242F2E1
:1027C0000002C4F2020240F09B809368D2F8081124
:1027D0000B43D90710D102F580718842614608BFCA
:1027E0001146904208BF01466268D1F8083323F4CD
:1027F0007C131A43C1F80823617EE26B604542EA0C
:10280000413326D0A16843EA010294F8201001293F
:1028100042EA014206D1616A0023CFF6FE7303EB60
:1028200041410A43A36A2BB103F47871E36A11436F
:1028300041EA030260451AD04CF20303C168CFF6A7
:10284000F07319401143C16020E041F010000125F0
:102850008BE0D4E90221082A43EA010356D00C2A6E
:1028600057D01C2A40F0858010221A43CDE744F24D
:102870000703DCF80C10CFF6F07319401143C16068
:102880000169626B21F040611143016181688268D6
:1028900001F0040102F00802891857D1217E604539
:1028A0004FEA813202D0216B0A4303E094F83810DA
:1028B00042EA4102C16844F2030399431143C160F3
:1028C00094F84410012917D14FF61E026045CFF647
:1028D000004221D0016901EA020E0021D4E912234D
:1028E000CFF6FF7101EB02414EEA0302236D114363
:1028F000626D194311431AE0016921F0010118E0EA
:10290000DCF80830D9073FF466AF75E700221A43B8
:102910007BE708221A4378E7DCF810101140D4E96D
:1029200012231143226D1943636D1143194341F082
:102930000101016160450169226C21F0704141EAA9
:102940000201016102D02046FDF7DEFE2068216908
:10295000026B012922F00F0102D1E269013A114311
:1029600001630121206E61F301002066284602B058
:10297000B0BD182A18BF00221A4346E70000000025
:102980002DE9F041B6B0044602A8B8210026CDE9F1
:102990003466CDE932663196FDF741FE42F2000120
:1029A0002068C4F20201884202D036B0BDE8F0814E
:1029B0004FF4002002901320049081200590022003
:1029C0000396CDE90600CDE9080602A82025CDE949
:1029D0000A562A9604F080FF08B1FEF73DFF44F244
:1029E000E04031AEC5F602004FF00308002750F872
:1029F000081C41F0200140F8081C50F8081C01F0A8
:102A0000200101910199016841F001010160016813
:102A100001F0010101910199016841F00401016097
:102A20000068314600F004000190019831950025BE
:102A3000CDF8C880C5F602053397284603F088FA1A
:102A400010203146CDE9310805F50060339703F0D9
:102A50007FFA45F6DC752820C2F20045C4F2020078
:102A600028600920C5E901074FF4806028614FF410
:102A7000006068614FF40050A8614FF48070EF600F
:102A8000C5E9070728466F6201F0A2FD08B1FEF70D
:102A9000E3FEA565AC6336B0BDE8F0810000000040
:102AA0002DE9F04742F2000546F20C0AC4F2020595
:102AB000044605F54277036805F58076C5F6020AF7
:102AC0003846B34218BF0AF53F70AB4208BF3846DC
:102AD00000689B685B0704D4894694F85C10012960
:102AE00002D10220BDE8F08700F01F070120092F66
:102AF00084F85C004DD8B84040F22121084248D00B
:102B000020469046FDF704FF20B1002184F85C10B8
:102B1000BDE8F087216840F60172B14218BF0D464A
:102B2000206E90438D4200F58070206618BF002F04
:102B300003D1206E20F480102066206E40F2F973DD
:102B4000C0044FF0000044BF606E20F0060040F665
:102B50008107C0F600036066C0F60007A06D002282
:102B6000C0E90F3740F66103C0F60003C3641C23BD
:102B70000B6084F85C20AAF10C024B68914243F090
:102B800010024A600BD0226BCB6823F003031A4378
:102B900012E0002084F85C000120BDE8F08794F882
:102BA0003820DAF8003023F0030343EA4202CAF87F
:102BB0000020CA6842F00102CA6040314A464346DA
:102BC00002F09AF821684FF6C073C7F6FF738A685F
:102BD0001A4004328A60BDE8F0870000000000005F
:102BE0002DE9F041044603F097FA04B3054694F842
:102BF000350002281ED140F20F472068C4F20207B8
:102C000040F26F48B842C4F2020817DC6F21C4F2E8
:102C10000201884223DC3F21C4F20201884239DCF0
:102C20001021C4F20201884258D0282151E001202D
:102C3000BDE8F081802060650120ABE240451ADCF0
:102C400040F23F41C4F2020188422ADC40F21041C6
:102C5000C4F20201884241D040F2284139E09F216C
:102C6000C4F20201884225DC7021C4F202018842CC
:102C700034D088212DE040F29F41C4F20201884205
:102C80001FDC40F27041C4F20201884226D040F2BB
:102C900088411EE04021C4F2020188421ED0582122
:102CA00017E040F24041C4F20201884216D040F2DF
:102CB00058410EE0A021C4F2020188420ED0B82192
:102CC00007E040F2B841C4F20201884206D040F267
:102CD000A041C4F20201884240F0EA8126683168CE
:102CE00021F01E02314641F8142B6FF080020B6870
:102CF000404502EA03020A6019DC9F21C4F2020186
:102D0000884231DC5721C4F20201884256DC10218E
:102D1000C4F20201884200F091802821C4F202012D
:102D2000884200F08B804021C4F2020184E045F229
:102D30002F41C5F6020188422BDC40F2B741C4F2B4
:102D40000201884248DC40F27041C4F2020188422C
:102D500074D040F28841C4F2020188426ED040F241
:102D6000A041C4F2020167E040F22741C4F202012F
:102D7000884240DCA021C4F2020188425ED0B82122
:102D8000C4F20201884259D040F21041C4F202015B
:102D900052E045F26B41C5F6020188423CDC45F247
:102DA0003041C5F60201884248D045F24441C5F69B
:102DB0000201884242D045F258413BE05821C4F21A
:102DC000020188423AD07021C4F20201884235D013
:102DD0008821C4F202012FE040F2B841C4F202019E
:102DE00088422BD045F20841C5F60201884225D021
:102DF00045F21C411EE040F22841C4F20201884223
:102E00001CD040F24041C4F20201884216D040F288
:102E10005841C4F202010FE045F26C41C5F60201CF
:102E200088420BD045F29441C5F60201884205D094
:102E300045F28041C5F60201884269D1216EB8424F
:102E40000A6822F480720A6010DC6F21C4F2020169
:102E500088421CDC3F21C4F20201884232DC10218E
:102E6000C4F20201884252D028214AE040451ADCCF
:102E700040F23F41C4F2020188422ADC40F2104194
:102E8000C4F20201884242D040F2284139E09F2139
:102E9000C4F20201884225DC7021C4F2020188429A
:102EA00035D088212DE040F29F41C4F202018842D2
:102EB0001FDC40F27041C4F20201884227D040F288
:102EC00088411EE04021C4F2020188421FD05821EF
:102ED00017E040F24041C4F20201884217D040F2AC
:102EE00058410EE0A021C4F2020188420FD0B8215F
:102EF00007E040F2B841C4F20201884207D040F234
:102F0000A041C4F20201884208BF206800E02068A6
:102F1000016821F0010101603068C0070BD003F0A7
:102F2000FBF8401B0628F7D320206065032084F8B7
:102F3000350001202EE12068B84210DC6F21C4F278
:102F4000020188421CDC3F21C4F20201884232DCCB
:102F50001021C4F20201884250D028214AE04045A5
:102F60001ADC40F23F41C4F2020188422ADC40F2FE
:102F70001041C4F20201884240D040F2284139E0B9
:102F80009F21C4F20201884225DC7021C4F20201B3
:102F9000884233D088212DE040F29F41C4F20201E3
:102FA00088421FDC40F27041C4F20201884225D001
:102FB00040F288411EE04021C4F2020188421DD047
:102FC000582117E040F24041C4F20201884215D076
:102FD00040F258410EE0A021C4F2020188420DD017
:102FE000B82107E040F2B841C4F20201884205D09E
:102FF00040F2A041C4F2020188425ED1D4E9161227
:1030000002F01F023F2303FA02F28A6040455EDCB1
:103010009F21C4F20201884214DC5721C4F202014C
:10302000884226DC1021C4F20201884200F0A2800E
:103030002821C4F20201884200F09C804021C4F2A1
:10304000020195E040F22741C4F2020188421EDCF1
:10305000A021C4F20201884200F08C80B821C4F2A1
:103060000201884200F0868040F21041C4F2020161
:103070007EE05821C4F2020188427BD07021C4F264
:103080000201884276D08821C4F2020170E040F249
:103090002841C4F2020188426CD040F24041C4F29F
:1030A0000201884266D040F25841C4F202015FE05A
:1030B00021686FF00E020E4619E6D4E9161202F0EE
:1030C0001F02012303FA02F24A604045A0DD45F2E7
:1030D0002F41C5F60201884216DC40F2B741C4F226
:1030E0000201884225DC40F27041C4F202018842AC
:1030F00040D040F28841C4F2020188423AD040F206
:10310000A041C4F2020133E045F26B41C5F6020171
:1031100088421DDC45F23041C5F60201884229D0C3
:1031200045F24441C5F60201884223D045F2584198
:103130001CE040F2B841C4F2020188421AD045F2C4
:103140000841C5F60201884214D045F21C410DE049
:1031500045F26C41C5F6020188420BD045F294411C
:10316000C5F60201884205D045F28041C5F602014C
:1031700088420BD1616EA26EE06E4A6030B1016888
:1031800021F480710160D4E91C014160012084F8C0
:1031900035000020002184F83410BDE8F0810000E3
:1031A00080B5D8B190F83510022919D140F20F43FB
:1031B0000168C4F20203994216DC6F22C4F20202D3
:1031C000914226DC3F22C4F2020291423CDC1022F2
:1031D000C4F2020291425AD0282254E0012080BD5C
:1031E00080214165012080BD40F26F42C4F202029D
:1031F00091421ADC40F23F42C4F2020291422ADCC0
:1032000040F21042C4F20202914240D040F2284201
:1032100039E09F22C4F20202914225DC7022C4F2FE
:103220000202914233D088222DE040F29F42C4F244
:10323000020291421FDC40F27042C4F2020291424B
:1032400025D040F288421EE04022C4F202029142A0
:103250001DD0582217E040F24042C4F202029142CF
:1032600015D040F258420EE0A022C4F20202914270
:103270000DD0B82207E040F2B842C4F202029142F7
:1032800005D040F2A042C4F20202914270D19942AC
:103290004FF0040280F8352010DC6F22C4F20202E5
:1032A000914220DC3F22C4F20202914236DC10221D
:1032B000C4F20202914254D028224EE040F26F4202
:1032C000C4F2020291421ADC40F23F42C4F202020E
:1032D00091422ADC40F21042C4F20202914240D0F4
:1032E00040F2284239E09F22C4F20202914225DCDA
:1032F0007022C4F20202914233D088222DE040F2C3
:103300009F42C4F2020291421FDC40F27042C4F2BA
:103310000202914225D040F288421EE04022C4F2CF
:10332000020291421DD0582217E040F24042C4F2FE
:103330000202914215D040F258420EE0A022C4F29F
:10334000020291420DD0B82207E040F2B842C4F226
:103350000202914205D040F2A042C4F20202914220
:1033600021D10068016821F001010160002080BDC9
:10337000D0F800C09C45DCF8002022F00E02CCF80A
:10338000002016DC6F22C4F20202944526DC3F22A4
:10339000C4F2020294453CDC1022C4F202029445BD
:1033A0005DD0282254E0086820F001000860002069
:1033B00080BD40F26F42C4F2020294451ADC40F232
:1033C0003F42C4F2020294452ADC40F21042C4F2A9
:1033D0000202944543D040F2284239E09F22C4F2D1
:1033E0000202944525DC7022C4F20202944536D0D4
:1033F00088222DE040F29F42C4F2020294451FDC75
:1034000040F27042C4F20202944528D040F2884251
:103410001EE04022C4F20202944520D0582217E058
:1034200040F24042C4F20202944518D040F25842A1
:103430000EE0A022C4F20202944510D0B82207E0A8
:1034400040F2B842C4F20202944508D040F2A042D1
:10345000C4F20202944508BFD0F800C001E0D0F8E1
:1034600000C040F26F42DCF80030C4F20202914228
:1034700023F00102CCF8002019DC9F22C4F20202E2
:10348000914231DC5722C4F20202914256DC1022F2
:10349000C4F20202914200F091802822C4F202029A
:1034A000914200F08B804022C4F2020284E045F297
:1034B0002F42C5F6020291422BDC40F2B742C4F221
:1034C0000202914248DC40F27042C4F20202914290
:1034D00074D040F28842C4F2020291426ED040F2AF
:1034E000A042C4F2020267E040F22742C4F20202A4
:1034F000914240DCA022C4F2020291425ED0B82286
:10350000C4F20202914259D040F21042C4F20202C7
:1035100052E045F26B42C5F6020291423CDC45F2B4
:103520003042C5F60202914248D045F24442C5F607
:103530000202914242D045F258423BE05822C4F286
:10354000020291423AD07022C4F20202914235D076
:103550008822C4F202022FE040F2B842C4F2020212
:1035600091422BD045F20842C5F60202914225D085
:1035700045F21C421EE040F22842C4F2020291428F
:103580001CD040F24042C4F20202914216D040F2F6
:103590005842C4F202020FE045F26C42C5F6020244
:1035A00091420BD045F29442C5F60202914205D0F9
:1035B00045F28042C5F6020291421AD1D0E9181CA8
:1035C000D0E916E30A6822F480720A6003F01F0152
:1035D000012202FA01F1CEF80410816ECCF8041039
:1035E000C16E31B10A6822F480720A60D0E91C12FF
:1035F0004A60012180F83510026D002180F83410F6
:103600000AB190470021084680BD0000000000007C
:10361000F0B581B0E0B140F20F4704460168C4F252
:10362000020740F26F40B942C4F2020013DC6F227D
:10363000C4F2020291421FDC3F22C4F20202914214
:1036400035DC1022C4F20202914254D028224DE00F
:10365000012001B0F0BD81421ADC40F23F42C4F2C9
:10366000020291422ADC40F21042C4F2020291426C
:1036700041D040F2284239E09F22C4F20202914236
:1036800025DC7022C4F20202914234D088222DE05F
:1036900040F29F42C4F2020291421FDC40F27042AB
:1036A000C4F20202914226D040F288421EE040223B
:1036B000C4F2020291421ED0582217E040F240426A
:1036C000C4F20202914216D040F258420EE0A0220B
:1036D000C4F2020291420ED0B82207E040F2B84292
:1036E000C4F20202914206D040F2A042C4F20202A9
:1036F000914240F09F812268136881424FF001009F
:1037000023F00103136015DC9F22C4F202029142F0
:103710002BDC5722C4F2020291424EDC1022C4F28A
:103720000202914277D02822C4F20202914272D062
:1037300040226BE045F22F42C5F60202914227DC9F
:1037400040F2B742C4F20202914242DC40F27042BF
:10375000C4F2020291425ED040F28842C4F20202F8
:10376000914258D040F2A04250E040F22742C4F2C9
:10377000020291423CDCA022C4F2020291424AD0F1
:10378000B822C4F20202914245D040F210423DE01C
:1037900045F26B42C5F60202914250DC45F23042DE
:1037A000C5F6020291425DD045F24442C5F60202DE
:1037B000914257D045F258424FE05822C4F20202DB
:1037C000914228D07022C4F20202914223D0882272
:1037D0001CE040F2B842C4F2020291421BD045F212
:1037E0000842C5F6020291423CD045F21C4234E048
:1037F00040F22842C4F2020291420CD040F2404210
:10380000C4F20202914206D040F25842C4F20202CF
:10381000914240F00D81206800210160416081608B
:10382000C1600161212141612046FDF755FCE16D38
:103830003F2201F01F0102FA01F1816023E045F20D
:103840006C42C5F6020291420CD045F28042C5F6A8
:103850000202914206D045F29442C5F6020291421C
:1038600040F0E68020680021016041608160C16015
:1038700001612046FDF730FCE16D012201F01F01DE
:1038800002FA01F1416045F2574C2168C5F6020C7D
:1038900045F6FC006145C5F602000EDC45F22F42FC
:1038A000C5F60202914217DC45F20842C5F6020253
:1038B000914226D045F21C421FE045F27F42C5F6F8
:1038C0000202914211DC45F25842C5F602029142D1
:1038D00017D045F26C4210E045F23042C5F60202C4
:1038E00091420ED045F2444207E045F29442C5F6BB
:1038F0000202914205D045F28042C5F60202914291
:1039000049D122784CF6CD43CCF6CC43A0F1FC054E
:10391000083AA2FB0323A0F17C021B0905EB8305F7
:1039200003F01F030127C4E9185207FA03F2A26645
:1039300025B100222A60D4E9192353606268531E1E
:10394000072B66D84FF0FF3353FA82F3072B5AD870
:10395000D2B2614500F144050EDC45F22F47C5F6B1
:103960000207B94233DC45F20847C5F60207B942FF
:1039700042D045F21C473BE045F27F47C5F60207BF
:10398000B9422DDC45F25847C5F60207B94233D09B
:1039900045F26C472CE022784AF6AB23CAF6AA23FC
:1039A0000826103AB942A2FB032507F1AA074FEAFD
:1039B0001512134688BF06EB151340F60005B942F1
:1039C000C4F2020528BF134605F18002A6E745F2BE
:1039D0003047C5F60207B9420ED045F2444707E02A
:1039E00045F28047C5F60207B94205D045F2944733
:1039F000C5F60207B9421FD100EB8200E066012044
:103A000025679840606704F16C02002307CA0360D1
:103A10004A6000206067C4E91B00C4E90F00C4E9E4
:103A20001100C4E91300606584F8350084F834009F
:103A300001B0F0BD0A465FE640F60001C4F20201A3
:103A400001F1FC0001F5A075D6E7000000000000C0
:103A5000406D7047000000002DE9F04381B0002167
:103A6000009140F218310446C2F2004140F26F4921
:103A7000A56DC4F20209086848F2B511C1F64E31CD
:103A80002768A0FB01084F452E682A6815DC9F2097
:103A9000C4F2020087422BDC5720C4F202008742A6
:103AA0004FDC1020C4F20200874278D02820C4F2F4
:103AB0000200874273D040206CE045F22F40C5F6EB
:103AC0000200874227DC40F2B740C4F2020087427E
:103AD00043DC40F27040C4F2020087425FD040F203
:103AE0008840C4F20200874259D040F2A04051E021
:103AF00040F22740C4F2020087423DDCA020C4F21D
:103B0000020087424BD0B820C4F20200874246D060
:103B100040F210403EE045F26B40C5F6020087429D
:103B200074DC45F23040C5F60200874200F0818027
:103B300045F24440C5F6020087427AD045F258402B
:103B400072E05820C4F20200874228D07020C4F2EC
:103B50000200874223D088201CE040F2B840C4F223
:103B6000020087421BD045F20840C5F6020087429A
:103B70005FD045F21C4057E040F22840C4F20200FA
:103B800087420CD040F24040C4F20200874206D087
:103B900040F25840C4F20200874240F00A85E06DCE
:103BA00000F01F01082000FA01F2324200F01381F8
:103BB00040F20F40C4F20200874213DC6F20C4F2CF
:103BC0000200874200F390803F20C4F20200874247
:103BD00000F3CE801020C4F20200874200F0EC8097
:103BE0002820E4E04F4500F38B8040F23F40C4F2D0
:103BF0000200874200F3C38040F21040C4F202008A
:103C0000874200F0D98040F22840D0E045F26C4075
:103C1000C5F6020087420CD045F28040C5F602008E
:103C2000874206D045F29440C5F60200874240F034
:103C3000C084E06D236800F01F01042000FA01F643
:103C40001B68164218BF13F004002BD1022000FAA3
:103C500001F6164218BF13F0020066D122FA01F0F5
:103C6000000740F1A68413F0080000F0A28440F29F
:103C70000F40C4F20200874200F321836F20C4F298
:103C80000200874200F398833F20C4F2020087427B
:103C900000F3DD831020C4F20200874200F0FB83B2
:103CA0002820F3E318046E6039D4980600F13184BB
:103CB00040F20F40C4F20200874200F36A836F2093
:103CC000C4F20200874200F392833F20C4F2020054
:103CD000874200F3F5831020C4F20200874200F00F
:103CE0001284282000F00BBC9F20C4F202008742FF
:103CF0004EDC7020C4F2020087425DD0882056E07E
:103D000040F29F40C4F20200874248DC40F270401B
:103D1000C4F2020087424FD040F2884047E0D80307
:103D200000F1F783A16C00F041BC18046E6000F153
:103D3000C182980600F1398440F20F40C4F20200BB
:103D4000874200F370836F20C4F20200874200F3C1
:103D5000E2833F20C4F20200874200F3F783102081
:103D6000C4F20200874200F01484282000F00DBC49
:103D70004020C4F2020087421ED0582017E040F2D3
:103D80004040C4F20200874216D040F258400EE094
:103D9000A020C4F2020087420ED0B82007E040F213
:103DA000B840C4F20200874206D040F2A040C4F2FC
:103DB0000200874240F0978220680423006818427E
:103DC00009D02068036823F004030360AA60606DD3
:103DD00040F001006065012000FA01F2324270D02B
:103DE00040F20F40C4F20200874210DC6F20C4F2A0
:103DF000020087421CDC3F20C4F20200874232DC12
:103E00001020C4F20200874251D028204AE04F45DA
:103E10001ADC40F23F40C4F2020087422ADC40F242
:103E20001040C4F20200874241D040F2284039E0FD
:103E30009F20C4F20200874225DC7020C4F20200F9
:103E4000874234D088202DE040F29F40C4F2020027
:103E500087421FDC40F27040C4F20200874226D045
:103E600040F288401EE04020C4F2020087421ED08B
:103E7000582017E040F24040C4F20200874216D0BA
:103E800040F258400EE0A020C4F2020087420ED05B
:103E9000B82007E040F2B840C4F20200874206D0E2
:103EA00040F2A040C4F20200874240F01F82206826
:103EB000406900F0800020B1AA60606D40F002000F
:103EC0006065042000FA01F2324270D040F20F40E7
:103ED000C4F20200874210DC6F20C4F20200874265
:103EE0001CDC3F20C4F20200874232DC1020C4F206
:103EF0000200874251D028204AE04F451ADC40F2A8
:103F00003F40C4F2020087422ADC40F21040C4F273
:103F10000200874241D040F2284039E09F20C4F29D
:103F20000200874225DC7020C4F20200874234D0B0
:103F300088202DE040F29F40C4F2020087421FDC3F
:103F400040F27040C4F20200874226D040F288401E
:103F50001EE04020C4F2020087421ED0582017E025
:103F600040F24040C4F20200874216D040F258406E
:103F70000EE0A020C4F2020087420ED0B82007E075
:103F800040F2B840C4F20200874206D040F2A0409E
:103F9000C4F20200874240F0AF812068006800F060
:103FA000020020B1AA60606D40F00400606510203E
:103FB00000FA01F131427ED040F20F40C4F202001B
:103FC000874210DC6F20C4F2020087421CDC3F20D5
:103FD000C4F20200874232DC1020C4F202008742A1
:103FE00051D028204AE04F451ADC40F23F40C4F24D
:103FF000020087422ADC40F21040C4F202008742ED
:1040000041D040F2284039E09F20C4F202008742AC
:1040100025DC7020C4F20200874234D088202DE0D5
:1040200040F29F40C4F2020087421FDC40F2704021
:10403000C4F20200874226D040F288401EE04020B1
:10404000C4F2020087421ED0582017E040F24040E0
:10405000C4F20200874216D040F258400EE0A02081
:10406000C4F2020087420ED0B82007E040F2B84008
:10407000C4F20200874206D040F2A040C4F202001F
:10408000874240F03F81276808223868104212D0EA
:10409000A960206801684903016806D4C90506D4EF
:1040A000016821F00801016001E008034FD4216C90
:1040B00009B120468847E06D202100F01F008140B3
:1040C000314200F0A88040F20F432268C4F202039C
:1040D0009A4210DC6F23C4F202039A421CDC3F2395
:1040E000C4F202039A4236DC1023C4F202039A425D
:1040F00055D028234EE04A451ADC40F23F43C4F233
:1041000002039A422EDC40F21043C4F202039A42A8
:1041100045D040F228433DE09F23C4F202039A4277
:1041200029DC7023C4F202039A4238D0882331E09C
:1041300040F29F43C4F202039A4223DC40F27043F0
:10414000C4F202039A422AD040F2884322E0A16CD2
:104150000029AED1AFE74023C4F202039A421ED039
:10416000582317E040F24043C4F202039A4216D0AB
:1041700040F258430EE0A023C4F202039A420ED04C
:10418000B82307E040F2B843C4F202039A4206D0D3
:1041900040F2A043C4F202039A4240F0B580226884
:1041A000102312681A4236D0A96094F8352021688D
:1041B000042A0A6817D122F016020A604A6922F01E
:1041C00080024A61226C0AB9A26C1AB10A6822F014
:1041D00008020A603F2101FA00F0A860012084F87B
:1041E0003500216D65E1500308680CD4C0050ED47C
:1041F000086820F010000860012084F835000020D5
:1042000084F8340003E0000301D4616C00E0E16B4A
:1042100009B120468847606D002800F0CA81606DB2
:10422000C00700F0B480042084F8350040F20F414C
:104230002068C4F20201884210DC6F21C4F202013E
:1042400088421CDC3F21C4F2020188425EDC10215E
:10425000C4F2020188427ED0282176E048451ADC6B
:1042600040F23F41C4F20201884256DC40F2104164
:10427000C4F2020188426ED040F2284165E09F21DD
:10428000C4F20201884251DC7021C4F2020188426A
:1042900061D0882159E040F29F41C4F20201884276
:1042A0004BDC40F27041C4F20201884253D040F22C
:1042B00088414AE0D80300F17881616C76E14F458E
:1042C00000F3868040F23F40C4F20200874200F3D0
:1042D000C58040F21040C4F20200874200F0DB804B
:1042E00040F22840D2E00823384667E538680020CD
:1042F00000287FF4E1ADE4E53868002000287FF471
:1043000051AE54E60422C0E602234AE74021C4F23B
:10431000020188421FD0582117E040F24041C4F208
:104320000201884217D040F258410EE0A021C4F2A9
:10433000020188420FD0B82107E040F2B841C4F230
:104340000201884207D040F2A041C4F20201884233
:1043500008BF206800E020684FEA9821026822F038
:1043600001020260009801300090884203D8206862
:104370000068C007F6D120680068C0074FF003004E
:1043800008BF012084F83500002084F83400E16C77
:104390000CE14F4538DC40F23F40C4F20200874256
:1043A00000F3958040F21040C4F20200874200F012
:1043B000AA8040F22840A2E09F20C4F20200874277
:1043C00055DC7020C4F20200874264D088205DE092
:1043D00040F29F40C4F2020087424FDC40F270403E
:1043E000C4F20200874256D040F288404EE09F203F
:1043F000C4F20200874273DC7020C4F202008742DC
:1044000000F0818088207AE040F29F40C4F20200F0
:1044100087426CDC40F27040C4F20200874272D0E6
:1044200040F288406BE04F4500F3818040F23F400E
:10443000C4F20200874200F3908040F21040C4F2C0
:104440000200874200F0A58040F228409DE0402015
:10445000C4F2020087421ED0582017E040F24040CC
:10446000C4F20200874216D040F258400EE0A0206D
:10447000C4F2020087420ED0B82007E040F2B840F4
:10448000C4F20200874206D040F2A040C4F202000B
:10449000874240F0918027686FF01C023868104016
:1044A0003860012000FA01F16960606584F8350028
:1044B000E16C00294FF0000084F8340077D178E0F7
:1044C0004020C4F2020087421DD0582017E040F27D
:1044D0004040C4F20200874215D040F258400EE03E
:1044E000A020C4F2020087420DD0B82007E040F2BD
:1044F000B840C4F20200874205D040F2A040C4F2A6
:10450000020087425BD127686FF0080138680840D5
:104510003860216C4AE09F20C4F20200874225DC0B
:104520007020C4F20200874233D088202DE040F290
:104530009F40C4F2020087421FDC40F27040C4F288
:104540000200874225D040F288401EE04020C4F29D
:10455000020087421DD0582017E040F24040C4F2CC
:104560000200874215D040F258400EE0A020C4F26D
:10457000020087420DD0B82007E040F2B840C4F2F4
:104580000200874205D040F2A040C4F202008742F8
:1045900018D127686FF0140138680840386001208E
:1045A00084F83500002084F83400E16B09B120461E
:1045B000884701B0BDE8F0836FF00E026EE76FF040
:1045C0000401A3E76FF00A01E6E700000000000025
:1045D0002DE9F04381B0044601F09EFD002C00F06F
:1045E000738140F26F4805462068C4F202084045D6
:1045F00015DC9F21C4F2020188422BDC5721C4F252
:104600000201884251DC1021C4F2020188427AD0B2
:104610002821C4F20201884275D040216EE045F2A3
:104620002F41C5F60201884227DC40F2B741C4F2AF
:104630000201884245DC40F27041C4F20201884226
:1046400061D040F28841C4F2020188425BD040F25E
:10465000A04153E040F22741C4F2020188423FDC0E
:10466000A021C4F2020188424DD0B821C4F2020157
:10467000884248D040F2104140E045F26B41C5F617
:104680000201884200F3908045F23041C5F60201F4
:10469000884200F09C8045F24441C5F60201884200
:1046A00000F0958045F258418CE05821C4F2020197
:1046B000884228D07021C4F20201884223D0882188
:1046C0001CE040F2B841C4F2020188421BD045F21E
:1046D0000841C5F60201884279D045F21C4171E0DB
:1046E00040F22841C4F2020188420CD040F240411D
:1046F000C4F20201884206D040F25841C4F20201DD
:10470000884240F03F8140F20F420221C4F202028F
:1047100084F8351090424FF0000184F8341012DC18
:104720006F21C4F20201884220DC3F21C4F2020161
:10473000884200F391801021C4F20201884200F007
:10474000B0802821A7E040451EDC40F23F41C4F282
:104750000201884200F3878040F21041C4F2020156
:10476000884200F09E8040F2284194E09F21C4F2EC
:104770000201884200F380807021C4F20201884265
:1047800000F08F80882186E040F29F41C4F2020150
:10479000884278DC40F27041C4F20201884200F0A5
:1047A000808040F2884176E045F26C41C5F6020116
:1047B00088420CD045F28041C5F60201884206D0FD
:1047C00045F29441C5F60201884240F0DB8004F1D5
:1047D000080E022084F8350000209EE80640A1F172
:1047E000800384F83400B3FA83F320685B0940291E
:1047F000D4E90576D4E9079C05684FEA83336FF363
:10480000101508BF102345EAD2014AF6F8321943C1
:10481000CAF2FD7241EADE014CF6CD4341EAD7010E
:10482000024441EAD601CCF6CC4341EAD901A2FBCD
:10483000032341EA1C1101606FF0030000EA9300BA
:10484000E0652046FCF748FCE16D012201F01F0104
:1048500002FA01F14160C7E04021C4F2020188423E
:104860001FD0582117E040F24041C4F202018842B3
:1048700017D040F258410EE0A021C4F20201884254
:104880000FD0B82107E040F2B841C4F202018842DB
:1048900007D040F2A041C4F20201884208BF20685C
:1048A00000E02068016821F00101016020680168D2
:1048B000C9070DD001F030FC401B0628F6D320209C
:1048C0006065032084F83500012001B0BDE8F08365
:1048D00048F23F0204F108070168CFF61062114068
:1048E00066698CCF1143D4F818C01943E369394382
:1048F000276A0E43616A46EA0C06042943EA060366
:1049000043EA070303D1D4E90B763B43334365689D
:10491000A5F12906292E00F247800127DFE806F0DD
:104920001515151515154444444444444444444461
:104930004444444444441515151544444444151551
:1049400044444444444415151515002F18BF43F43E
:10495000801304290360426922F0070241EA020140
:1049600037D1D4E90A5341EA050193B3BCF5005F9E
:104970000AD0BCF1000F13D1022D1DD0012D09D09A
:10498000D5B11CE040209BE7032D18D8DFE805F0E7
:104990000A140A02A3F1C072B2FA82F252090FE0BD
:1049A000032D08D201220BE025F00302743AB2FA7B
:1049B00082F25709C9E702D1C3F3006200E0002286
:1049C0003AB140206065012084F8350001B0BDE8AF
:1049D000F08341612046FCF77FFBE16D3F2201F04F
:1049E0001F0102FA01F181602068404519DC9F2116
:1049F000C4F20201884231DC5721C4F2020188422C
:104A000056DC1021C4F20201884200F09280282175
:104A1000C4F20201884200F08C804021C4F20201FD
:104A200084E045F22F41C5F6020188422BDC40F2BA
:104A3000B741C4F20201884248DC40F27041C4F23E
:104A40000201884275D040F28841C4F202018842D6
:104A50006FD040F2A041C4F2020167E040F227416A
:104A6000C4F20201884240DCA021C4F20201884263
:104A70005FD0B821C4F2020188425AD040F21041FE
:104A8000C4F2020152E045F26B41C5F602018842D0
:104A90003CDC45F23041C5F60201884249D045F27E
:104AA0004441C5F60201884243D045F258413BE0FB
:104AB0005821C4F2020188423BD07021C4F20201A5
:104AC000884236D08821C4F202012FE040F2B8417A
:104AD000C4F2020188422CD045F20841C5F6020119
:104AE000884226D045F21C411EE040F22841C4F223
:104AF000020188421DD040F24041C4F202018842C6
:104B000017D040F25841C4F202010FE045F26C4167
:104B1000C5F6020188420CD045F29441C5F6020167
:104B2000884206D045F28041C5F60201884240F035
:104B3000CF8045F2574C45F6FC01C5F6020CC5F690
:104B4000020160450EDC45F22F43C5F60203984290
:104B500017DC45F20843C5F60203984226D045F219
:104B60001C431FE045F27F43C5F60203984211DC67
:104B700045F25843C5F60203984217D045F26C43FC
:104B800010E045F23043C5F6020398420ED045F2DC
:104B9000444307E045F29443C5F60203984205D02A
:104BA00045F28043C5F60203984250D123784CF673
:104BB000CD47CCF6CC47A1F1FC05083BA1F17C0622
:104BC000A3FB07373B0905EB83022266A26803F0CB
:104BD0001F030127802A666607FA03F2A26601D145
:104BE000002262606268A66ED4E91837D5B2013A35
:104BF000072A1D607E6016D82679731E072B61D8A0
:104C0000604501F1440213DC45F22F47C5F6020767
:104C1000B8423BDC45F20847C5F60207B8424AD025
:104C200045F21C4743E000206067C4E91B004FE0E9
:104C300045F27F47C5F60207B84230DC45F25847D7
:104C4000C5F60207B84236D045F26C472FE023780C
:104C50004AF6AB27CAF6AA270825103BA3FB07375D
:104C600040F20F43C4F202033E09984203F1AA0244
:104C7000334688BF05EB171340F600059042C4F297
:104C8000020528BF334605F180069CE745F2304710
:104C9000C5F60207B8420ED045F2444707E045F298
:104CA0008047C5F60207B84205D045F29447C5F6DD
:104CB0000207B84214D101EB8600E06601202267AA
:104CC0009840606704F16C02002307CA03604A60E1
:104CD00000206065012184F8351001B0BDE8F08343
:104CE00040F60000C4F2020000F1FC0100F5A072E1
:104CF000E1E7000000000000F0B581B0A8B3044671
:104D000090F83400012802D1022001B0F0BD01204A
:104D100084F8340094F83500012820D1022084F86A
:104D200035000020606540F20F462068C4F202069C
:104D300040F26F47B042C4F2020719DC6F25C4F29B
:104D40000205A84225DC3F25C4F20205A8423BDC4F
:104D50001025C4F20205A8425BD0282553E04FF489
:104D600000606065002084F83400012001B0F0BDCF
:104D7000B8421ADC40F23F45C4F20205A8422ADCE0
:104D800040F21045C4F20205A84242D040F2284544
:104D900039E09F25C4F20205A84225DC7025C4F243
:104DA0000205A84235D088252DE040F29F45C4F287
:104DB0000205A8421FDC40F27045C4F20205A84279
:104DC00027D040F288451EE04025C4F20205A842E3
:104DD0001FD0582517E040F24045C4F20205A84212
:104DE00017D040F258450EE0A025C4F20205A842B3
:104DF0000FD0B82507E040F2B845C4F20205A8423A
:104E000007D040F2A045C4F20205A84208BF2068BE
:104E100000E02068056825F0010505602046FCF7E4
:104E2000EBF92068B04210DC6F21C4F20201884225
:104E30001CDC3F21C4F20201884232DC1021C4F2A2
:104E40000201884251D028214AE0B8421ADC40F2DF
:104E50003F41C4F2020188422ADC40F21041C4F210
:104E60000201884241D040F2284139E09F21C4F23A
:104E70000201884225DC7021C4F20201884234D04C
:104E800088212DE040F29F41C4F2020188421FDCDC
:104E900040F27041C4F20201884226D040F28841BB
:104EA0001EE04021C4F2020188421ED0582117E0C2
:104EB00040F24041C4F20201884216D040F258410B
:104EC0000EE0A021C4F2020188420ED0B82107E012
:104ED00040F2B841C4F20201884206D040F2A0413B
:104EE000C4F20201884240F0298121680B25226C1E
:104EF0000B6865F344030B601AB108220B681A4370
:104F00000A60B84219DC9F21C4F20201884231DCF8
:104F10005721C4F20201884256DC1021C4F202017A
:104F2000884200F091802821C4F20201884200F0FA
:104F30008B804021C4F2020184E045F22F41C5F686
:104F4000020188422BDC40F2B741C4F202018842E0
:104F500048DC40F27041C4F20201884274D040F251
:104F60008841C4F2020188426ED040F2A041C4F2EE
:104F7000020167E040F22741C4F20201884240DCAE
:104F8000A021C4F2020188425ED0B821C4F202011D
:104F9000884259D040F21041C4F2020152E045F279
:104FA0006B41C5F6020188423CDC45F23041C5F652
:104FB0000201884248D045F24441C5F602018842C8
:104FC00042D045F258413BE05821C4F202018842E8
:104FD0003AD07021C4F20201884235D08821C4F24F
:104FE00002012FE040F2B841C4F2020188422BD006
:104FF00045F20841C5F60201884225D045F21C4120
:105000001EE040F22841C4F2020188421CD040F266
:105010004041C4F20201884216D040F25841C4F225
:1050200002010FE045F26C41C5F6020188420BD047
:1050300045F29441C5F60201884205D045F280410F
:10504000C5F60201884272D1216E0A68D20303D5E7
:105050000A6842F480720A60E16E19B10A6842F48B
:1050600080720A60B04210DC6F21C4F202018842F3
:105070001CDC3F21C4F20201884232DC1021C4F260
:105080000201884252D028214AE0B8421ADC40F29C
:105090003F41C4F2020188422ADC40F21041C4F2CE
:1050A0000201884242D040F2284139E09F21C4F2F7
:1050B0000201884225DC7021C4F20201884235D009
:1050C00088212DE040F29F41C4F2020188421FDC9A
:1050D00040F27041C4F20201884227D040F2884178
:1050E0001EE04021C4F2020188421FD0582117E07F
:1050F00040F24041C4F20201884217D040F25841C8
:105100000EE0A021C4F2020188420FD0B82107E0CE
:1051100040F2B841C4F20201884207D040F2A041F7
:10512000C4F20201884208BF206800E020680168DC
:1051300041F001010160002001B0F0BD21680525AA
:10514000226C0B68002A65F343030B603FF4D9AE71
:105150000422D3E600000000B0B5044600F0DCFFF6
:1051600040F208410546C2F20041621C097818BFAE
:105170000C4400BF00F0D0FF401BA042FAD3B0BDEA
:1051800090F89830013B012B0BD80068836D0B42DF
:105190000CD0836D0B408B420CD1C36D43F00203E6
:1051A00009E000F19C010120022221E0C36D43F0DF
:1051B000010300E00323C3658B0504D5D0F8E0307C
:1051C0001343C0F8E0304B0504D5D0F8E4301A435F
:1051D000C0F8E4204FF6FF72436DC3F6CF720A4069
:1051E0001A4342658A0F4AF614010020C4F20001F6
:1051F0000B681A430A607047B0B5044690F89800EF
:1052000002281AD12068D0F8C03013F07C5F19D082
:10521000D0F8C4309B021AD4D0F8C400C0F30445BF
:1052200020462B46FCF7B8FC20680121A940C0F8B5
:10523000D0100020C4F89410B0BDD4F89C0040F009
:10524000080008E0D4F89C0040F0200003E0D4F807
:105250009C0040F40070C4F89C000120B0BD000028
:10526000704700000000000080B590F89820013AD7
:10527000012A0AD80A68002ACA680ED00B69072AD0
:1052800043EA427E16D18B6919E0D0F89C1041F0B8
:105290000201C0F89C10012080BD072A18D10A69BC
:1052A000D1F81CC012048B6942EA0C221A4342F066
:1052B000605217E0D1F808C04B6943EA8C73006F65
:1052C000496800EBC10240F831E00020536080BD26
:1052D0008B68D1F810C09B0743EAC2624B6942EA6F
:1052E0000C421A434968C06E40F82120002080BD5E
:1052F00090F898C0BCF1010F0DD19200006842EA0D
:105300000111DDF800C041EA430141EA0C01C0F897
:10531000801000207047D0F89C1041F00401C0F8C4
:105320009C10012070470000704700000000000042
:10533000704700000000000070B590F89850022DF2
:105340001CD140291FD10568D5F8A04014F4FE0FE8
:1053500000F08F80D5F8A440640600F09680D5F860
:10536000A440E40148BFD5F8A040D5F8A45000F10E
:105370007404C5F3052E456CF44629E0D0F89C1062
:1053800041F0080185E0412918D10568D5F8B04001
:1053900014F4FE0F6DD0D5F8B440640675D0D5F87E
:1053A000B440E40148BFD5F8B040D5F8B45000F19E
:1053B0007804C5F3052EC56CF44609E0056D8D42F1
:1053C00057D900F17C04D0F854E04FF0000C0D46A2
:1053D00005FB0EF6246854F8265015F080455560FC
:1053E00054F826E02EF0604508BFCEF38A4504EB62
:1053F000860E156054F8265005F00055956054F857
:10540000264004F000441461BEF80440D461DEF884
:10541000044004F47024D460DEF80450B4F5803FF6
:1054200005F480155561DEF8045005F4001595610A
:105430009EF8075005F07F051562DEF804504FEA2C
:10544000D57454620ED30EF1080545F6284E00249B
:10545000C0F6010E2E5D1E550134D6891EF8066079
:10546000B442F7D3402909D10068C0F8A8C0002091
:1054700070BDD0F89C1041F020010AE041290CD108
:105480000068C0F8B8C0002070BDD0F89C1041F48E
:105490008071C0F89C10012070BD1F2907D80068DA
:1054A000012202FA01F1C0F89810002070BD0068D6
:1054B00001F01F01012202FA01F1C0F89C10002046
:1054C00070BD0000000000007047000000000000F8
:1054D0002DE9F04F89B004464AF61000C4F20000EE
:1054E00001684AF61400C4F200000268206802EA6B
:1054F0000108056DD0F85490036D0293436D01933C
:10550000036D0493436D0393036D0893436D0793F9
:10551000036D0693436D0593D0F854A0D0F850B0B6
:105520005FEACA530ED51BF480710BD04FF4807123
:1055300001654AF610010020C4F20001086020460F
:10554000FFF7C2FF05EA09064AF610095FEA4A506A
:10555000C4F200094FEA887711D51BF480600ED0A1
:105560002068D0F8DC10D0F8E42011404FF48062BD
:1055700002650020C9F80000204600F0D9FCDDE9F2
:10558000011000EA010506F4704657B120680021B9
:10559000016508F00300C9F8000020463946FFF70E
:1055A0005FFEDDE9031000EA010705F00F0546B1D3
:1055B0002068314606650020C9F80000204600F04A
:1055C000BFFC07F0F00645B12068294605650020BC
:1055D000C9F80000204600F0C3FB46B12068314600
:1055E00006650020C9F80000204600F041FC5FEA93
:1055F0000A500CD51BF4006009D020684FF40061FC
:1056000001650020C9F80000204600F09DFC5FEA1B
:105610008A5011D51BF400700ED02068D0F8D81035
:10562000D0F8E02011404FF4007202650020C9F864
:105630000000204600F080FC5FEA0A300CD51BF425
:10564000002009D020684FF4002101650020C9F82E
:105650000000204600F080FB5FEACA300CD51BF446
:10566000803009D020684FF4803101650020C9F8EE
:105670000000204600F058FC5FEA4A30DDE90510E2
:1056800000EA01050CD51BF4802009D020684FF4F6
:10569000802101650020C9F80000204600F040FC90
:1056A0005FEA8A30DDE9071000EA010005F0607169
:1056B0000FD51BF400320CD022684FF40033136571
:1056C0000022C9F80020D4F89C2042F08002C4F8DF
:1056D0009C2000F0715539B1206801650020C9F89F
:1056E00000002046FFF724FE4DB12068056500202C
:1056F000C9F80000D4F89C002843C4F89C00206836
:10570000A9F50161884208D0D4F89C0010B1204668
:10571000FFF70AFE09B0BDE8F08F6068816889076D
:10572000F2D0016A426A036A476A114003EA07023B
:1057300002F03005D0F82080D0F82490D0F820B0C6
:10574000D0F824A0026A089211F00F01426A079271
:10575000466A026A069203D00162204600F0D4FB3A
:1057600008EA09072DB1606829460562204600F065
:10577000D3FB70060BEA0A0607F4C0750ED506982F
:1057800010F040000AD060684023C16BC26B090C66
:1057900002F03F020362204600F0BAFBDDE9071089
:1057A00000EA010706F4FC462DB16068294605624F
:1057B000204600F0A5FB07F4F02036B161680E62C8
:1057C000D4F89C103143C4F89C1000289CD0616828
:1057D0000862D4F89C100843C4F89C0094E70000C9
:1057E0002DE9F04F85B0002840D04AF20008044669
:1057F000C4F200080068404502D108F5807060607E
:1058000094F8980028B9002084F89900204600F008
:10581000CBF92068816921F01001816100F07CFCE6
:10582000054600BF20688169090705D500F074FCB2
:10583000401B0B28F6D310E0816941F00101816122
:1058400000F06AFC054600BF20688169C90711D1D4
:1058500000F062FC401B0B28F6D30120D4F89C100A
:105860000843C4F89C00032084F89800012005B088
:10587000BDE8F08F816941F002018161217C82697C
:1058800022F04002012918BF40328261617C8269A6
:1058900022F48042012908BF02F580428261A17C86
:1058A000826922F48052012918BF02F58052826178
:1058B000816921F44073D4E902120B438361836947
:1058C00023F0A4038361036923F0100303619AB1F9
:1058D000012A0DD0022A09D08369032A43F08003EC
:1058E0008361036943F01002026105D1202200E0C8
:1058F000042283691A438261D4E90572E369561E62
:105900006FF0FF02256A02EB0323B1F5407F43EA03
:105910004663A5F1010646EA030640F20003CFF60E
:10592000FF7303EB074746EA0701C16110D1D4E9D1
:105930000B65D4E90917013F02EB06226FF00F0651
:105940003A4306EB05173A4303EB01411143C160AB
:10595000236E2BB1616ED0F8C0201143C0F8C01087
:10596000E16DCDE90313D94245F6A001C0F601016E
:1059700009D0D0F8C820A36E22F0070251F82330D6
:105980001A43C0F8C820D4F840A0BAF1000F09D0DB
:10599000D0F8BC20636C22F0070251F823301A4380
:1059A000C0F8BC20A76C57B1D0F8BC20E36C22F043
:1059B000700251F8233042EA0312C0F8BC20D4F838
:1059C00050C0BCF1000F0AD0D0F8BC20636D22F4A7
:1059D000E06251F8231042EA0121C0F8BC104045B2
:1059E00004D161688A6822F003028A600021C4F849
:1059F0009410C4F89C10012184F898104FF6FC72A2
:105A0000D0F88410D4F83C9021EA0203656CD4E904
:105A10000D120292019543EA8103C0F88430D0F858
:105A2000843023F47F0343EA0243C0F884305318E0
:105A3000D0F888606FF38F0646EA8306C0F8886066
:105A4000D0F8886003EB490326F4FE0646EA0946CF
:105A5000C0F88860D0F8A0606FF38F0646EA83062E
:105A6000C0F8A060D0F8A06005FB0A3326F4FE065B
:105A700046EA0A46C0F8A060D0F8B0606FF38F061F
:105A800046EA8306C0F8B060D0F8B06026F4FE069F
:105A900046EA0746C0F8B060E66CD0F8AC506FF349
:105AA0008F0506FB07337E4345EA8305C0F8AC50FB
:105AB000D4F8548008FB0C35D0F8F0306FF38F0326
:105AC00008FB0CFC43EA8503C0F8F030D0F8F0E0A6
:105AD000A36D2EF47C1242EA0342C0F8F02005EBDD
